:0400000021EF00F0FC
:1000080017829DAC0AEF00F00CEF00F01FEF00F034
:100018009EAC11EF00F013EF00F01FEF00F0010E9F
:10002800096EC4CF03F0C3CF04F0000E066E000EB5
:0E003800076E9E9CC2921792110025EF02F0F7
:100300000000000E086E010E096ED398D38AD38CBC
:10031000958006EC02F019EC02F0000EC96E000E9A
:1003200083B0010E0B6E0950D8B499EF01F09BEF2A
:1003300001F08FEF01F0000E0E6E320E0D6EEEEC3E
:1003400001F09EA6A6EF01F0A8EF01F08FEF01F0FB
:100350000850D8A4AEEF01F0B0EF01F0B6EF01F015
:10036000C968010E086E9E968FEF01F00650D8A462
:10037000BCEF01F0BEEF01F0C4EF01F004C0C9FF13
:10038000010E066EB3EF01F00750D8A4CAEF01F0DA
:10039000CCEF01F0D2EF01F003C0C9FF010E076EF0
:1003A000B3EF01F00C50D8A4D8EF01F0DAEF01F070
:1003B000EAEF01F00BC0C9FF010E0C6E9E9630EC07
:1003C00002F0C282030E0E6EE80E0D6EEEEC01F02E
:1003D0008FEF01F08FEF01F021EF00F0000E116EB2
:1003E000000E106EF6EF01F0104A112A0D50105C4D
:1003F0001150800A0F6E0E50800A0F58D8A003EFDC
:1004000002F005EF02F0F4EF01F01200B888C19C91
:10041000C19E99809992C28AC080C082C084D08EC9
:10042000F28EF28C9D8C9E9C9F8CC08EC280C2826C
:1004300012009488949E949AC78EC698C79CC690C2
:10044000C692C694C696C68A120000EE01F00C0E43
:10045000EE6AE806FDE117901792000181EF01F0C6
:0A046000000E086E000E0C6E120074
:020000040030CA
:0E000000FFC90E3E3C9D81FF0FC00FE00F4078
:00000001FF
