:0400000021EF00F0FC
:1000080014829DAC0AEF00F00CEF00F01FEF00F037
:100018009EAC11EF00F013EF00F01FEF00F0010E9F
:10002800116EC4CF10F0C3CF0FF0000E0E6E000E8D
:0E0038000D6E9E9CC2921492110002EF02F017
:100300000000D398D38AD38C958019EC02F02CECA2
:1003100002F0000EC96E000E83B0010E136E115074
:10032000D8B495EF01F097EF01F08BEF01F0000EDC
:10033000026E320E016EEAEC01F09EA6A2EF01F011
:10034000A4EF01F08BEF01F00B50D8A4AAEF01F05D
:10035000ACEF01F0B2EF01F0C968010E0B6E9E9692
:100360008BEF01F00E50D8A4B8EF01F0BAEF01F016
:10037000C0EF01F00FC0C9FF010E0E6EAFEF01F02C
:100380000D50D8A4C6EF01F0C8EF01F0CEEF01F098
:1003900010C0C9FF010E0D6EAFEF01F00C50D8A4D4
:1003A000D4EF01F0D6EF01F0E6EF01F013C0C9FF82
:1003B000010E0C6E9E9638EC02F0C282030E026EA5
:1003C000E80E016EEAEC01F08BEF01F08BEF01F02B
:1003D00021EF00F0000E056E000E046EF2EF01F04A
:1003E000044A052A0150045C0550800A036E02503D
:1003F000800A0358D8A0FFEF01F001EF02F0F0EF00
:1004000001F012007A0EF66E040EF76E000EF86E12
:100410000900F5CF11F00900F5CF12F0106A0F6A4C
:100420000E6A0D6A0C6A0B6A14901492000181EF37
:1004300001F0B888C19CC19E99809992C28AC080FF
:10044000C082C084D08EF28EF28C9D8C9E9C9F8C3C
:10045000C08EC280C28212009488949E949AC78EE5
:10046000C698C79CC690C692C694C696C68A120005
:0C047000000E0B6E000E0C6E120001FF5F
:020000040030CA
:0E000000FFC90E3E3C9D81FF0FC00FE00F4078
:00000001FF
